:1000000013C01AC019C018C017C010C115C00DC147
:1000100013C012C011C010C00FC00EC00DC00CC064
:1000200003C10AC009C008C011241FBECFEFD1E030
:10003000DEBFCDBF0FD1BCC1E3CF83B7897F846062
:1000400083BF83B7816083BF889583B78E7F83BF6B
:1000500008958A3008F089E0982F9770883008F06A
:100060009062F894A89584B7877F84BF80916000E0
:100070008861809360009064909360007894089504
:10008000F894A89584B7877F84BFE0E6F0E080818C
:1000900080658083108278940895DBDFCEDFF0CF17
:1000A0008F706111806480937C0083B7897F826048
:1000B00083BF83B7816083BF889583B78E7F83BFFB
:1000C000809178002091790090E0922B08951F9301
:1000D000CF93DF9387EA91E60197F1F700C0000024
:1000E00015E0C0E0D0E060E083E0DADFC80FD91FA0
:1000F00081EE94E00197F1F700C00000115099F7EC
:10010000CE0165E070E040D1633A92E0790708F4EF
:1001100066C0589A83ED90E30197F1F700C00000A4
:10012000603D92E0790708F45AC0599A83ED90E354
:100130000197F1F700C000006E3E92E0790708F4E5
:100140004EC05A9A83ED90E30197F1F700C000008A
:10015000693393E0790708F442C05B9A83ED90E33A
:100160000197F1F700C00000623593E07907B8F11C
:100170002F9A83ED90E30197F1F700C000006B36F2
:1001800093E0790760F15D9A83ED90E30197F1F7D1
:1001900000C000006A3793E0790708F15E9A83EDAA
:1001A00090E30197F1F700C000006E3893E0790703
:1001B000B0F05F9A83ED90E30197F1F700C0000083
:1001C000683993E0790758F0289A83ED90E3019716
:1001D000F1F700C00000623A734008F0299ADF91FD
:1001E000CF911F91089585B18C6785B988B1876FCC
:1001F00088B98AB18F6E8AB984B1836884B9EAE715
:10020000F0E0808182608083808181608083808152
:1002100080688083808188608083EDE6F0E0808163
:100220008061808378940895189518951F920F9295
:100230000FB60F9211248F939F938FE493EC019745
:10024000F1F700C000009F918F910F900FBE0F90AB
:100250001F901895C8DF3BDF85E0E82EF12C4C9904
:1002600031C08FE493EC0197F1F700C000008BB12F
:1002700080718BB985B18C7785B980917A008F7741
:1002800080937A0080917A00877F80937A008091B2
:100290006800846080936800D0DE80917A00806876
:1002A00080937A0080917A00886080937A008091B0
:1002B00068008B7F8093680083EC99E00197F1F7E9
:1002C00000C0000015E0C0E0D0E060E083E0E8DEC0
:1002D000C80FD91F81EE94E00197F1F700C000002C
:1002E000115099F7CE01B7014FD0633A92E07907E8
:1002F00030F0589A603D82E0780718F408C05898AA
:1003000006C0599A6E3E92E0790718F408C05998D1
:1003100006C05A9A693383E0780718F408C05A98DF
:1003200006C05B9A623593E0790718F408C05B98C1
:1003300006C02F9A6B3683E0780718F408C02F9810
:1003400006C05D9A6A3793E0790718F408C05D9893
:1003500006C05E9A6E3883E0780718F408C05E988D
:1003600006C05F9A683993E0790718F408C05F986F
:1003700006C0289A623A734018F0299A02C0289859
:10038000299886E08ADE6BCFAA1BBB1B51E107C010
:10039000AA1FBB1FA617B70710F0A61BB70B881F15
:1003A000991F5A95A9F780959095BC01CD010895A4
:0403B000F894FFCFEF
:00000001FF
