:1000000013C025C024C09EC022C021C020C01FC074
:100010001EC01DC01CC01BC01AC019C018C017C00C
:1000200090C015C014C013C011241FBECFEFD1E083
:10003000DEBFCDBF11E0A0E0B1E0E8EDF2E002C02C
:1000400005900D92A230B107D9F790D043C1D8CF17
:1000500083B7897F846083BF83B7816083BF8895BE
:1000600083B78E7F83BF08958A3008F089E0982F88
:100070009770883008F0906284B7877F84BF809142
:1000800060008861809360009064909360000895A0
:10009000F89484B7877F84BFE0E6F0E080818861D0
:1000A0008083108278940895DFDFD2DFF1CF8F70E4
:1000B0006111806480937C0083B7897F826083BFF5
:1000C00083B7816083BF889583B78E7F83BF80911C
:1000D00078002091790090E0922B089585B18C678B
:1000E00085B988B1876F88B98AB18F6E8AB984B1B2
:1000F000836884B98BB18F6E8BB985B1836885B9FC
:100100008FE493EC0197F1F700C000008BB1807190
:100110008BB985B18C7785B9EAE7F0E080818260A0
:1001200080838081816080838081806880838081FA
:1001300088608083EDE6F0E0808180618083789440
:10014000089518951F920F920FB60F9211248F9356
:100150009F9383ED90E30197F1F700C000009F911A
:100160008F910F900FBE0F901F901895B7DF85E00D
:10017000E82EF12C4C9931C083ED90E30197F1F713
:1001800000C000008BB180718BB985B18C7785B9C7
:1001900080917A008F7780937A0080917A00877FB0
:1001A00080937A008091680084608093680050DFBB
:1001B00080917A00806880937A0080917A008860CC
:1001C00080937A00809168008B7F8093680083EC35
:1001D00099E00197F1F700C0000015E0C0E0D0E021
:1001E00060E083E064DFC80FD91F81EE94E00197DF
:1001F000F1F700C00000115099F7CE01B70156D0B9
:10020000633A92E0790730F0589A603D22E0720735
:1002100018F408C0589806C0599A6E3E82E07807D4
:1002200018F408C0599806C05A9A693393E07907C0
:1002300018F408C05A9806C05B9A623523E072072A
:1002400018F408C05B9806C02F9A6B3683E07807D5
:1002500018F408C02F9806C05D9A6A3793E07907B2
:1002600018F408C05D9806C05E9A6E3823E07207E5
:1002700018F408C05E9806C05F9A683983E0780772
:1002800018F408C05F9806C0289A623A734018F0C4
:10029000299A02C0289829982FE38DE093E02150F5
:1002A00080409040E1F700C0000064CFAA1BBB1B58
:1002B00051E107C0AA1FBB1FA617B70710F0A61B66
:1002C000B70B881F991F5A95A9F780959095BC0187
:0802D000CD010895F894FFCF61
:0202D800010023
:00000001FF
